:100000000C94FF000C9427010C9427010C940E1201
:100010000C940E120C940E120C9427010C94561C86
:100020000C9427010C9427010C9427010C942701B0
:100030000C9427010C9427010C9427010C942701A0
:100040000C9463160C9427010C9427010C9427013F
:100050000C9427010C9427010C9427010C94270180
:100060000C9436150C9427010000000800020100D2
:100070000003040700000000000000000102040863
:100080001020408001020408102001020408102002
:10009000040404040404040402020202020203032E
:1000A00003030303000000002300260029000000D2
:1000B0000000250028002B0000000000240027007D
:1000C0002A00024E414E494E495459494E46CDCC24
:1000D000CC3D0AD7233C17B7D13877CC2B32959536
:1000E000E6241FB14F0A000020410000C842004032
:1000F0001C4620BCBE4CCA1B0E5AAEC59D740040A7
:100100007A10F35A00A0724E18090010A5D4E80026
:1001100000E87648170000E40B54020000CA9A3B3E
:10012000000000E1F50500008096980000004042C4
:100130000F000000A0860100000010270000000052
:10014000E803000000006400000000000A00000056
:1001500000000100000000002C76D888DC674F0802
:1001600023DFC1DFAE59E1B1B796E5E3E453C63A08
:10017000E651997696E8E6C28426EB898C9B62ED7F
:10018000407C6FFCEFBC9C9F40F2BAA56FA5F49039
:10019000055A2AF75C936B6CF9676DC11BFCE0E4B0
:1001A0000D47FEF520E6B500D0ED902E0300943506
:1001B00077050080841E080000204E0A000000C859
:1001C0000C333333330F986E12831141EF8D2114AA
:1001D000893BE65516CFFEE6DB18D1844B381BF77A
:1001E0007C1D901DA4BBE424203284725E22810019
:1001F000C9F124ECA1E53D27DD0D9814560E11241C
:100200001FBECFEFD8E0DEBFCDBF11E0A0E0B1E070
:10021000ECE0F4E502C005900D92A635B107D9F7E0
:1002200023E0A6E5B1E001C01D92A034B207E1F7DA
:1002300011E0CCEFD1E004C02297FE010E946C23B4
:10024000C83FD107C9F70E9401180C94F9290C94F2
:10025000000040918301509184016091850170916B
:10026000860123E030E089EA91E00E94101A6FE1F4
:1002700071E089EA91E00E94381840918F01509115
:100280009001609191017091920123E030E089EA40
:1002900091E00E94101A6FE171E089EA91E00E94FA
:1002A000381840918B0150918C0160918D017091B3
:1002B0008E0122E030E089EA91E00E94101A6FE19D
:1002C00071E089EA91E00E943818409187015091CD
:1002D00088016091890170918A0122E030E089EA09
:1002E00091E00E94101A6FE171E089EA91E00E94AA
:1002F000381840917B0150917C0160917D01709193
:100300007E0121E030E089EA91E00E94101A6FE15D
:1003100071E089EA91E00E94381860917101709152
:1003200072014AE050E089EA91E00E94F8186FE11A
:1003300071E089EA91E00E9438184091A001509143
:10034000A1016091A2017091A3018091A4019091FB
:10035000A501A091A601B091A701481B590B6A0BFA
:100360007B0B2AE030E089EA91E00E9418196FE1E6
:1003700071E089EA91E00E94381861E070E08091B4
:100380000F01882311F060E070E04AE050E089EA54
:1003900091E00C9400198091710190917201029783
:1003A00009F04EC080911C0190911D0107975CF0EF
:1003B00080919701811107C010921D0110921C01BC
:1003C00081E08093160280911C0190911D01079796
:1003D0005CF580919701811127C08091160220E081
:1003E00030E0A901882319F060ED77E002C068E0F1
:1003F00077E08091EB010E94121A8091160221E0B1
:1004000082278093160280911C0190911D01019614
:1004100090931D0180931C01079731F4209397015D
:100420008091EB010E94411C60910E0180E00E94CE
:10043000A11781E090910E01992389F080E00FC00F
:1004400087E00E94D71761E0892B29F480916F0122
:10045000811101C060E080E00E94A11781E08093DB
:100460000E010895CF93DF93EC0122E330E040E0EA
:1004700050E06CE677E088810E94121A1A8262E3EB
:1004800070E080E090E0DF91CF910C94DC168F92C9
:100490009F92AF92BF92CF92DF92EF92FF920F9313
:1004A0001F93CF9381E00E94D717892B21F0809171
:1004B0001001811171C080911101833009F0C3C016
:1004C00081E090E090931B0180931A019093570173
:1004D0008093560180EA809398018FE08093990180
:1004E00010929A0110929B0110929C0110929D0112
:1004F00010929E0110929F0180E090E0A8ECB2E47F
:100500008093930190939401A0939501B0939601E9
:10051000C1E0C0931001C0905801D0905901E09003
:100520005A01F0905B010E94AD16645F7140810931
:1005300091096C157D058E059F0570F1C093ED0145
:1005400022E330E040E050E060ED77E08091EB01A5
:100550000E94121A62E370E080E090E00E94DC16D4
:1005600022E330E040E050E06CED75E08091EB017B
:100570000E94121A62E370E080E090E00E94DC16B4
:100580001092ED010E94AD166093580170935901CD
:1005900080935A0190935B01109272011092710145
:1005A000C0907B01D0907C01E0907D01F0907E01B5
:1005B00020E030E04EEB52E4C701B6010E944C212E
:1005C00087FF04C080917001882349F081E0809307
:1005D000700182E090E090937201809371018091AC
:1005E0007001882359F020E030E044EB52E4C70169
:1005F000B6010E94711F87FD10927001E0906E019C
:10060000F12C87E00E94D71720916F01E816F906B8
:1006100011F0222389F180916E01821729F087E081
:100620000E94D717892B41F187E00E94D7170197C5
:1006300029F080916F01813009F0FFC18091700134
:100640008111FBC128C0109298011092990110925B
:100650009A0110929B0110929C0110929D011092A0
:100660009E0110929F01109293011092940110929A
:100670009501109296014CCF81E08093ED018BEEB5
:1006800091E00E94320281E090916E01911180E030
:1006900080936E01C9CF80911101823009F52091BC
:1006A00098013091990140919A0150919B0160917C
:1006B0009C0170919D0180919E0190919F010E94EB
:1006C000482020E030E040E251E40E945021209197
:1006D0008B0130918C0140918D0150918E0141C070
:1006E000833009F09EC120E030E048EC54E4609192
:1006F0008B0170918C0180918D0190918E010E94EF
:1007000050216B017C012091980130919901409119
:100710009A0150919B0160919C0170919D01809183
:100720009E0190919F010E9448204B015C016091C5
:100730001A0170911B01882777FD8095982F0E94E0
:100740004E2020E030E048EC52E40E9450219B0112
:10075000AC01C501B4010E94751F9B01AC01C7012A
:10076000B6010E94751F6B017C0120E030E04AEF6A
:1007700055E40E94711F87FF05C0C701B6010E94A2
:10078000172004C060E47FE180E090E01F921F9298
:100790002FE02F932FEF2F93A12CB12C650110E4A4
:1007A000E12E1FE1F12E00E010E020E030E0A90191
:1007B0000E94B21C8EED91E00E94FE0F81E090E05D
:1007C0009093720180937101109297010F900F9096
:1007D0000F900F9080916F01882331F087E00E9485
:1007E000D717892B09F044C1809111018230A9F0FB
:1007F000833021F1813091F58091930190919401A2
:10080000A0919501B091960180938301909384010A
:10081000A0938501B093860121C0809193019091AE
:100820009401A0919501B091960180937F019093DE
:100830008001A0938101B093820110C08091930147
:1008400090919401A0919501B09196018093160129
:1008500090931701A0931801B093190160E08AEEFC
:1008600091E00E941110BC0180E090E01F921F9265
:1008700027E02F9320ED2F93A12CB12C65011CE4D0
:10088000E12E18E0F12E00E010E020E030E0A901B8
:100890000E94B21C0E944E2020E030E04AE754E45F
:1008A0000E94751F6B017C010F900F900F900F90AD
:1008B0002FE632E143E85BE30E944C2118164CF02E
:1008C000C0928F01D0929001E0929101F09292013A
:1008D00030C02FE632E143E05BE3C701B6010E947E
:1008E0005021A70196010E9450214B015C0122E496
:1008F00030E645EE5BE3C701B6010E9450219B0143
:10090000AC01C501B4010E940C1F27E230EA49E89E
:100910005BE30E940D1F9B01AC01C701B6010E9461
:100920000D1F60938F0170939001809391019093BC
:10093000920161E08AEE91E00E941110BC0180E01A
:1009400090E01F921F9229E62F9328E72F93A12C66
:10095000B12C650115E0E12E10E1F12E00E010E070
:1009600020E030E0A9010E94B21C0E944E2020E04D
:1009700030E04AE754E40E94751F60938B01709346
:100980008C0180938D0190938E0120918F01309185
:10099000900140919101509192010E9450216093E9
:1009A0008701709388018093890190938A0162E0A6
:1009B0008AEE91E00E941110BC0180E090E00E945C
:1009C0004C2024E63BE343E850E40E94502120E021
:1009D00030E048EC52E40E94502120E030E040E852
:1009E00059E30E94502123E333E343E950E40E949A
:1009F0000D1F60937B0170937C0180937D01909328
:100A00007E010F900F900F900F90CF911F910F913B
:100A1000FF90EF90DF90CF90BF90AF909F908F901E
:100A20000895813009F0D6CE6091980170919901B6
:100A300080919A0190919B01A9CE60E070E08EEDCB
:100A400091E00E94FE0F0E94AD1624E630E040E0E7
:100A500050E00E94DB2125503109410951092093C2
:100A6000A4013093A5014093A6015093A701B2CEF3
:100A700010926F01B9CE6115710581F0DB010D9007
:100A80000020E9F7AD0141505109461B570BDC012D
:100A9000ED91FC910280F381E02D099480E090E0DB
:100AA0000895CF93DF93CDB7DEB7AA970FB6F8942A
:100AB000DEBF0FBECDBF63E271E0CE0185960E941E
:100AC000671D0E94AD1624E630E040E050E00E9431
:100AD000DB212093A0013093A1014093A201509308
:100AE000A30140918B0150918C0160918D01709117
:100AF0008E0122E0CE0101960E94321E40918F01AC
:100B000050919001609191017091920123E0CE018A
:100B100007960E94321E4091160150911701609174
:100B200018017091190123E0CE010D960E94321E2A
:100B300040917F015091800160918101709182010B
:100B400022E0CE0143960E94321E409183015091D3
:100B50008401609185017091860123E0CE014F965A
:100B60000E94321E61E271E0CE0149960E94671D2B
:100B7000BE01615E7F4FCE0149960E948E1E6FE1DD
:100B800071E00E94A11EBE016D5E7F4F0E948E1E0D
:100B90006FE171E00E94A11EBE01635F7F4F0E9462
:100BA0008E1E6FE171E00E94A11EBE01695F7F4F42
:100BB0000E948E1E6FE171E00E94A11EBE016F5F58
:100BC0007F4F0E948E1EBC01CE0185960E947D1D26
:100BD000CE0149960E94F91CCE014F960E94F91C45
:100BE000CE0143960E94F91CCE010D960E94F91C7D
:100BF000CE0107960E94F91CCE0101960E94F91CB5
:100C000061E070E08CE592E00E9480146DA17EA10D
:100C10008CE592E00E943B058CE592E00E949514E1
:100C200060916C0170916D014AE0CE0101960E94C5
:100C3000D91D4AE060911101CE0107960E94AC1DBA
:100C40004091A0015091A1016091A2017091A30176
:100C50008091A4019091A501A091A601B091A70156
:100C6000481B590B6A0B7B0B2AE0CE010D960E94A4
:100C7000051E60917101709172014AE0CE014396A8
:100C80000E94D91D40917B0150917C0160917D01B2
:100C900070917E0121E0CE014F960E94321E64E2E7
:100CA00071E0CE0149960E94671DBE01615E7F4FD3
:100CB000CE0149960E948E1E6FE171E00E94A11E36
:100CC000BE016D5E7F4F0E948E1E6FE171E00E943B
:100CD000A11EBE01635F7F4F0E948E1E6FE171E017
:100CE0000E94A11EBE01695F7F4F0E948E1E6FE1B0
:100CF00071E00E94A11EBE016F5F7F4F0E948E1E99
:100D0000BC01CE0185960E947D1DCE0149960E94B0
:100D1000F91CCE014F960E94F91CCE0143960E9409
:100D2000F91CCE010D960E94F91CCE0107960E9477
:100D3000F91CCE0101960E94F91C61E070E08CE57F
:100D400092E00E9480146DA17EA18CE592E00E9449
:100D50003B058CE592E00E949514CE0185960E9499
:100D6000F91CAA960FB6F894DEBF0FBECDBFDF9177
:100D7000CF910895CF92DF92EF92FF920F931F933E
:100D8000CF93DF93EC01088119810E94AD16CA80D0
:100D9000DB80EC80FD809B01AC012C193D094E09E4
:100DA0005F0969017A0120E030E0C016D106E20651
:100DB000F30678F06A837B838C839D83EE81FF81C9
:100DC000DF91CF911F910F91FF90EF90DF90CF9027
:100DD0000994DF91CF911F910F91FF90EF90DF90D9
:100DE000CF90089560E087E00E94681761E088E096
:100DF0000E94681761E080E00E94681760E081E06F
:100E00000E94681760E081E10E94681762E085E057
:100E10000E94681761E080E10E94681760E080E14D
:100E20000E94A1178AEE91E00E94021081E0809357
:100E3000E60160E070E08EED91E00E94FE0F87E039
:100E40000E94D71721E0892B09F020E020936E0142
:100E500040E855E260E070E089EA91E00E941113F9
:100E60008CE592E00C946C142F923F924F925F921B
:100E70006F927F928F929F92AF92BF92CF92DF92AA
:100E8000EF92FF920F931F93CF93DF9300D000D088
:100E9000CDB7DEB788EC91E00E947610FC0180911E
:100EA0001101823009F424C1833009F41EC281305B
:100EB00009F055C4309709F49CC09F2F990F990BE6
:100EC0009F01492F592F692F792F892FA0909801C1
:100ED000B0909901C0909A01D0909B01E0909C0144
:100EE000F0909D0100919E0110919F010E94352379
:100EF00059016A017B01582E692E722E8B2C942E7B
:100F00000D2D162FBF2DF82FE92FA0E00E944A23A8
:100F10005CF4A3E00E943E23722E832E942E052FB4
:100F2000162FB72FF82FE92F272D382D492D502FA9
:100F3000612F7B2F8F2F9E2F02E00E941723B90174
:100F4000882777FD8095982F0E944E2020E030E082
:100F50004AE754E40E94751F4B018C019501A601DC
:100F6000B701852D962DA0E00E944A2344F4A12CC0
:100F7000B12CC12CD12CE12CF12C512C612CA09244
:100F80009801B0929901C0929A01D0929B01E0928F
:100F90009C01F0929D0150929E0160929F0120E081
:100FA00030E0A901B401C8010E944C2118162CF0B0
:100FB000812C912C90E080E002C0902F812F840141
:100FC000292F382F009393011093940120939501BA
:100FD000309396019501A601B701852D962D0E94AB
:100FE0004820609377017093780180937901909302
:100FF0007A01209198013091990140919A01509184
:101000009B0160919C0170919D0180919E01909146
:101010009F010E9448204B015C0120918B0130917F
:101020008C0140918D0150918E0160E070E080EF65
:1010300091E40E94751FF62EE72ED82EC92E20E0CF
:1010400030E04AE755E40E9450212B013C0120E0AA
:1010500030E04AEF55E40E944C2118160CF44BC3C3
:10106000A3019201C501B4010E94711F87FF03C053
:10107000C501B40102C0C301B2010E94DD1F20936B
:1010800098013093990140939A0150939B0160938A
:101090009C0170939D0180939E0190939F01B0905D
:1010A0009301A0909401109195010091960120E088
:1010B00030E040E050E46F2D7E2D8D2D9C2D0E9460
:1010C0004C2118160CF42AC32F2D3E2D4D2D5C2DCE
:1010D0006B2D7A2D812F902F0E94711F87FD02C0EA
:1010E000860101C075018F2D9E2DA12FB02FF4C058
:1010F000309709F49CC09F2F990F990B9F01492F9E
:10110000592F692F792F892FA0909801B0909901BC
:10111000C0909A01D0909B01E0909C01F0909D01BD
:1011200000919E0110919F010E94352359016A018F
:101130007B01582E692E722E8B2C942E0D2D162F7E
:10114000BF2DF82FE92FA0E00E944A235CF4A3E012
:101150000E943E23722E832E942E052F162FB72F1A
:10116000F82FE92F272D382D492D502F612F7B2F58
:101170008F2F9E2F02E00E941723B901882777FD49
:101180008095982F0E944E2020E030E048EC52E4F9
:101190000E94751F4B018C019501A601B701852D99
:1011A000962DA0E00E944A2344F4A12CB12CC12C1E
:1011B000D12CE12CF12C512C612CA0929801B092F1
:1011C0009901C0929A01D0929B01E0929C01F09209
:1011D0009D0150929E0160929F0120E030E0A901A4
:1011E000B401C8010E944C2118162CF0812C912CBE
:1011F00090E080E002C0902F812F8401292F382FAA
:1012000000939301109394012093950130939601DC
:101210009501A601B701852D962D0E944820609367
:1012200073017093740180937501909376012091FE
:1012300098013091990140919A0150919B016091E0
:101240009C0170919D0180919E0190919F010E944F
:1012500048206B017C0120E030E84BE356E40E941B
:10126000711F87FF05C0C701B6010E94DD1F08C0BE
:1012700020EE3EE240E050E060E070E080E090E090
:10128000209398013093990140939A0150939B01C8
:1012900060939C0170939D0180939E0190939F01A8
:1012A0000091930110919401E0909501F0909601C6
:1012B00020E030E040EF51E4B801C7010E94711F07
:1012C00087FD05C000E010E030EF21E402C03E2DB4
:1012D0002F2DC801A32FB22F8093930190939401D7
:1012E000A0939501B09396013AC260901A01709054
:1012F0001B01309709F4B4C09F2F990F990B9F01E0
:10130000492F592F692F792F892FA0909801B090DC
:101310009901C0909A01D0909B01E0909C01F090BF
:101320009D0100919E0110919F010E94352359015A
:101330006A017B018A839983522E8B2C942E0D2D6A
:10134000162FBF2DF82FE92FA0E00E944A235CF44E
:10135000A3E00E943E23522E832E942E052F162F9B
:10136000B72FF82FE92F252D382D492D502F612F1C
:101370007B2F8F2F9E2F02E00E941723B901882711
:1013800077FD8095982F0E944E201B012C01B30100
:10139000882777FD8095982F0E944E2020E030E02E
:1013A00040E251E40E9450219B01AC01C201B10115
:1013B0000E94751F4B018C014A8059809501A6013E
:1013C000B701C20120343C49410551056105710551
:1013D0008105910559F054F060E4A62E7CE9B72E02
:1013E000C12CD12CE12CF12C412C512CA092980134
:1013F000B0929901C0929A01D0929B01E0929C0117
:10140000F0929D0140929E0150929F0120E030E0B9
:101410004AE754E4B401C8010E94711F87FD05C06A
:10142000812C912C9AE784E402C0902F812F8401B3
:10143000292F382F00939301109394012093950145
:10144000309396019501A601B701C2010E94482080
:10145000609312017093130180931401909315010E
:10146000209198013091990140919A0150919B01EE
:1014700060919C0170919D0180919E0190919F01CE
:101480000E9448204B015C0120908B0130908C0120
:1014900040908D0150908E01A2019101C201B101D5
:1014A0000E94502120E030E040EF51E40E94751F7F
:1014B000C62E7B838C83192F20E030E040E05FE371
:1014C000C201B1010E945021D62EE72EF82E092F1D
:1014D000262F372F482F592F6C2D7B818C81912FF0
:1014E0000E944C21181634F43C2C2B80FC81F9838B
:1014F0001A8304C03D2C2E2CF9820A83B30188275D
:1015000077FD8095982F0E944E202B013C019B0176
:10151000AC01632D722D89819A810E94502120E0B7
:1015200030E040E252E40E9450219B01AC01C50131
:10153000B4010E944C2118161CF4C501B40123C04B
:101540002D2D3E2D4F2D502F6C2D7B818C81912F79
:101550000E944C2118162CF4BC2DAB81FC81E12F8C
:1015600004C0BD2DAE2DFF2DE02FA30192016B2FE6
:101570007A2F8F2F9E2F0E94502120E030E040E2F2
:1015800052E40E9450210E94DD1F922E832E742E61
:10159000652E562E472E382E292E209398013093F3
:1015A000990140939A0150939B0160939C01709321
:1015B0009D0180939E0190939F01A0909301B09014
:1015C0009401809195018983E0919601EA832D2D04
:1015D0003E2D4F2D502F6C2D7B818C81912F0E94A1
:1015E0004C2118160CF4ABC02D2D3E2D4F2D502F35
:1015F000B50189819A810E944C21181624F0AD2CE6
:10160000BE2C102F02C0F9801A81C501AF2DB12F59
:101610008093930190939401A0939501B0939601C8
:1016200020E030E040E251E4B5018F2D912F0E947F
:10163000711F87FF03C08AE090E002C081E090E064
:1016400090931B0180931A0180911A0190911B01C4
:1016500020915601309157012817390709F47FC0AE
:1016600090935701809356010A9709F5292D382D3B
:10167000472D562D652D742D832D922D01E00E944E
:10168000FE2249013A01B62FA72FF82FE92F02E0D9
:101690000E94FE2259016A017B018C019401A30181
:1016A0006B2F7A2F8F2F9E2F0E94352313C05AE065
:1016B000A52EB12CC12CD12CE12CF12C00E010E096
:1016C000292D382D472D562D652D742D832D922DC6
:1016D0000E942922209398013093990140939A0106
:1016E00050939B0160939C0170939D0180939E0198
:1016F00090939F0134C020E030E04AEF55E4C501EB
:10170000B4010E94711F87FDB3CC20E43FE140E0AB
:1017100050E060E070E080E090E0B1CC20E030E0AC
:1017200040E050E46B2D7A2D812F902F0E94711F85
:1017300087FDD8CCF12CE12C10E000E4D4CC2C2D8A
:101740003B814C81512FB50189819A810E944C21A6
:1017500018160CF458CFAC2CBB80FC8056CF0F90E1
:101760000F900F900F90DF91CF911F910F91FF90ED
:10177000EF90DF90CF90BF90AF909F908F907F9031
:101780006F905F904F903F902F900895CF92DF928F
:10179000EF92FF920F93CF9387E00E94D7170197A4
:1017A00039F5E12CF12CC1E083E0E816F10434F4C2
:1017B000C093ED018BEE91E00E94320260910E0128
:1017C00080E00E94A11781E090910E01911180E0CC
:1017D00080930E0164E670E080E090E00E94DC16E9
:1017E0008FEFE81AF80A85E0E816F104E9F618C167
:1017F000C1E0C093ED018BEE91E00E943202809136
:1018000011018F5F843018F48093110102C0C093DE
:10181000110180911101823009F448C0833009F42C
:1018200087C0813009F0FCC0609177017091780128
:101830008091790190917A010E94DD1F2093980197
:101840003093990140939A0150939B0160939C01BE
:1018500070939D0180939E0190939F0169017A018D
:10186000C62FB72FF82FE92FA0E00E944A234CF48F
:10187000A3E00E943E2369017A01C62FB72FF82FFB
:10188000E92F9601A7016C2F7B2F8F2F9E2F02E04F
:101890000E941723B901882777FD8095982F0E9411
:1018A0004E2020E030E04AE754E4B0C0609173017C
:1018B0007091740180917501909176010E94DD1FF5
:1018C000209398013093990140939A0150939B0182
:1018D00060939C0170939D0180939E0190939F0162
:1018E00069017A01C62FB72FF82FE92FA0E00E94D7
:1018F0004A234CF4A3E00E943E2369017A01C62FDB
:10190000B72FF82FE92F9601A7016C2F7B2F8F2F70
:101910009E2F02E00E941723B901882777FD80954A
:10192000982F0E944E2020E030E048EC52E46EC038
:10193000C0901201D0901301E0901401F0901501B5
:1019400020E030E040E85FEBC701B6010E94711F64
:10195000882329F0C701B6010E94DD1F08C020EAD4
:101960003FE040E050E060E070E080E090E02093F5
:1019700098013093990140939A0150939B01609391
:101980009C0170939D0180939E0190939F01C22FB3
:10199000C32ED42EE52EF62EB72FF82FE92FA0E078
:1019A0000E944A235CF4A3E00E943E23C22FC32E70
:1019B000D42EE52EF62EB72FF82FE92F2C2F3C2D05
:1019C0004D2D5E2D6F2D7B2F8F2F9E2F02E00E94BD
:1019D0001723B901882777FD8095982F0E944E2004
:1019E0006B017C0160911A0170911B01882777FDC2
:1019F0008095982F0E944E2020E030E040E251E494
:101A00000E9450219B01AC01C701B6010E94751FC5
:101A10006093930170939401809395019093960144
:101A2000CF910F91FF90EF90DF90CF9008950F939B
:101A30001F93CF93DF9381E10E94D717EC01809130
:101A4000680190916901C817D90751F00E94AD163D
:101A500060936401709365018093660190936701C0
:101A60000E94AD16009164011091650120916601FC
:101A700030916701601B710B820B930B00910A017F
:101A800010910B0120910C0130910D0106171707E1
:101A90002807390730F580916A0190916B01C817CA
:101AA000D907F9F0D0936B01C0936A01C130D10519
:101AB000C1F461E080916C0190916D01892B09F076
:101AC00060E0862F90E090936D0180936C0180E13F
:101AD0000E94A11781E08093ED018BEE91E00E94BE
:101AE0003202D0936901C093680185E00E94D71744
:101AF000EC018091600190916101C817D90751F004
:101B00000E94AD1660935C0170935D0180935E014D
:101B100090935F010E94AD1600915C0110915D01F0
:101B200020915E0130915F01601B710B820B930B62
:101B300000910A0110910B0120910C0130910D01CF
:101B4000061717072807390780F4809162019091E2
:101B50006301C817D90749F0D0936301C0936201AC
:101B6000C130D10511F40E94C60BD0936101C0931E
:101B70006001DF91CF911F910F9108950E94170D81
:101B80000E9434078EE092E00E94BA0686E092E05E
:101B90000E94BA068EEF91E00E94BA0680916C0115
:101BA00090916D01019741F486EF91E00E94BA0691
:101BB0008EEE91E00C94BA060895EF92FF920F9387
:101BC0001F9387E492E0909315028093140284E6B9
:101BD00090E090930F0280930E0281E595E0909340
:101BE0000D0280930C028CE291E0909307028093A7
:101BF00006028BEC91E0909305028093040288EC3E
:101C000090E09093FF018093FE0189E291E0909330
:101C1000FD018093FC0184EF91E09093F7018093A4
:101C2000F6018AE59EE09093F5018093F4018AEF36
:101C300090E09093EF018093EE0188E090E0909324
:101C4000EC018093EB011092ED0189E08093EA01B1
:101C50002FEF3FEF4AE050E063E070E08EED91E05F
:101C60000E94380FE8EBEE2EEBE0FE2E06E010E0CF
:101C700025E030E043E050E062E070E088EC91E085
:101C80000E94411020E04FE06EE089EA91E00E945E
:101C9000E11280911A0190911B019093570180935A
:101CA00056011F910F91FF90EF90089589EA91E0FE
:101CB0000C948812CF92DF92EF92FF920F931F93B2
:101CC000CF93DF93CDB7DEB766970FB6F894DEBF3C
:101CD0000FBECDBF8E010F5F1F4F8AE0F80111923A
:101CE0008A95E9F789EA91E00E94A811892B09F405
:101CF0009BC078016701C01AD10A89EA91E00E946D
:101D0000A811892B51F089EA91E00E941B11809360
:101D1000A801F70181937F01EDCF89EA91E00E944C
:101D2000C011FE01EC0DFD1D808181117DC08981F6
:101D30008A3209F079C08A818E3709F075C08B81AB
:101D4000823591F044F4883459F08C3409F06CC039
:101D500010926F0169C0833551F0803791F064C0F3
:101D600081E080936F0160C0109210015DC081E03E
:101D700090910F01911180E080930F010E945A0E03
:101D800053C0B801CE0141960E94671D2D893E893E
:101D900043E050E0BE016F5E7F4FCE010B960E9484
:101DA000BB1ECE010B960E94001F6B017C01CE0171
:101DB0000B960E94F91CCE0141960E94F91C20E06E
:101DC00030E0A901C701B6010E944C2187FD2CC05B
:101DD00020E030E040E050E4C701B6010E94711FEE
:101DE000181614F1C0929301D0929401E0929501DB
:101DF000F092960120E030E04AE755E4C701B601D1
:101E00000E9450210E94DD1F209398013093990178
:101E100040939A0150939B0160939C0170939D01A4
:101E200080939E0190939F0166960FB6F894DEBF53
:101E30000FBECDBFDF91CF911F910F91FF90EF901B
:101E4000DF90CF9008958EBD00000DB407FEFDCF4A
:101E50008EB508952CB5982F93702C7F922B9CBD36
:101E60009DB582FB882780F99E7F982B9DBD0895A4
:101E7000CF93DF93EC01842F1E821F82188691E09E
:101E80009987E4E0F0E0FB87EA87488359833B8346
:101E90002A8363307105C1F03CF46130710561F053
:101EA0006230710561F013C06530710541F024F0B6
:101EB0006630710549F00BC028E030E002C02AE02E
:101EC00030E03D832C8305C02CE030E0FACF1D824A
:101ED0001C8261E00E94681761E08A810E94681795
:101EE00061E088810E94A11761E08A810E94A117A8
:101EF0000E949F138CB58F7D8CBD8CB5837F8CBD6C
:101F00008A85DF91CF910C942A0FCF92DF92EF92C6
:101F1000FF920F931F93CF93DF931F92CDB7DEB73E
:101F20008C017B01FC01848195818C30910519F431
:101F3000FFE0FF2209C08A30910519F483E0F822FE
:101F400003C0089709F4FF24F8018085882311F065
:101F50002A9807C060E0F801808149830E94A11798
:101F60004981F801C78081E0C826D12C50E2C59E86
:101F7000D02CCC241124868190E090E4899F902D70
:101F800088271124C82AD92A80E090E0942F9795B9
:101F900099279795C82AD92A6894D4F88CE090E0BC
:101FA00024813581821B930B02C0EE0CFF1C8A95A5
:101FB000E2F7CE28DF288D2D0E94230F8C2D0E9462
:101FC000230FF8018085882359F02A9A0F90DF911A
:101FD000CF911F910F91FF90EF90DF90CF900895D8
:101FE00061E0F80180810F90DF91CF911F910F91F7
:101FF000FF90EF90DF90CF900C94A11740E050E05D
:102000000C94850FCF93DF93EC0161E088810E94EF
:10201000681761E088810E94A117DF91CF910C942D
:102020009F130F931F93CF93DF93EC01162F60E064
:1020300088810E94A117177024E0129FC00111240B
:1020400080660E94230F80E00E94230F182F80E0FB
:102050000E94230F082F61E088810E94A117202F82
:1020600030E084E0359527958A95E1F740E1149FAB
:10207000C0011124822B932BDF91CF911F910F91DF
:102080000895EF92FF920F931F93CF93DF93EC018C
:10209000798368835B834A833F872E87198B088BFC
:1020A000FD86EC861D821C821F821E821986188680
:1020B0001B861A860E94B9166A8B7B8B8C8B9D8B34
:1020C00060E088810E94681760E08A810E9468173A
:1020D00061E088810E94A11761E08A81DF91CF9140
:1020E0001F910F91FF90EF900C94A117AF92BF92A8
:1020F000CF92DF92EF92FF920F931F93CF93DF93D4
:1021000000D0CDB7DEB75C01FC0180810E94D717FB
:102110007C01F50182810E94D717F5012481358168
:1021200046815781E216F30621F48417950709F4D6
:1021300073C02817390719F44E155F0561F44E1561
:102140005F0561F451E040E02817390709F450E0D9
:10215000052F142F05C00FEF1FEF02C000E010E0A5
:10216000F501F582E482978386830115110509F450
:1021700049C08085918508171907D9F5828593850F
:102180000196938782870E94B916F501C288D38889
:10219000E488F5886C197D098E099F09C484D5846B
:1021A000EE24D7FCE094FE2C6C157D058E059F0572
:1021B00090F482859385608971890E94C721868504
:1021C0009785689F9001699F300D789F300D11248D
:1021D0001216130614F021E030E029833A830E949E
:1021E000B916F501628B738B848B958B29813A81AB
:1021F00005C0F5011386128621E030E0F501118754
:10220000008702C021E030E0029FC001039F900DD3
:10221000129F900D112402C080E090E00F900F906B
:10222000DF91CF911F910F91FF90EF90DF90CF90B2
:10223000BF90AF9008952091590230915A0228170B
:102240003907B9F49091170280911802981789F014
:10225000E0911702F0E0E75EFD4F808120911702C8
:1022600030E02F5F3F4F2F7333272093170290E00A
:1022700008958FEF9FEF08951F93CF93DF93DC01B5
:102280005C968D919C915D97009749F481E090E078
:1022900013969C938E93129780E090E03BC05196EA
:1022A000ED91FC91529750962C915097322F30958A
:1022B0001FB75E964C915E9741FB772770F941FD01
:1022C0006095F8944081772311F0422B01C043239D
:1022D0004083EC012197F1F748E0508160FF02C094
:1022E000522B01C053235083EC012197F1F76695DF
:1022F000415099F78081772311F0832301C0822B0D
:1023000080831FBF5C968D919C915D970197F1F73B
:1023100081E090E0DF91CF911F91089520915902C3
:1023200030915A022817390781F490911702809151
:102330001802981751F0E0911702F0E0E75EFD4FA8
:102340008081992787FD909508958FEF9FEF0895DD
:102350002091590230915A022817390771F480915F
:1023600018022091170290E0805C9F4F821B910918
:1023700060E470E00E94C721089580E090E0089535
:102380002091590230915A022817390739F48FB732
:10239000F89410921802109217028FBF0895E091DE
:1023A0005902F0915A02E817F90769F4A389B48930
:1023B0009C918589809589238C9310925A02109262
:1023C000590281E0089580E00895CF93DF93EC01F6
:1023D0008A8D9B8D892BF1F08091590290915A0240
:1023E0008C179D07B9F0009711F00E94CF118E8DC8
:1023F0008E7F8E8F1092180210921702D0935A027D
:10240000C0935902EB89FC8980819D89892B808347
:1024100081E001C080E0DF91CF9108951F920F927B
:102420000FB60F9211242F933F934F935F936F93A7
:102430007F938F939F93AF93BF93EF93FF93E0911D
:102440005902F0915A02309709F451C0868DA68541
:10245000B785958581FF04C08C91892329F447C0F5
:102460008C91892309F043C0A389B4899C91858903
:10247000809589238C93868997890197F1F7208D20
:10248000318DA685B785758558E040E0C901019773
:10249000F1F7842F90E095958795482F6C916723ED
:1024A00009F04068515091F7868D81FD40958091EB
:1024B000180290E001968F73992720911702281730
:1024C00049F0A0911802B0E0A75EBD4F4C938093F5
:1024D000180203C0868D8160868F828D938D01974F
:1024E000F1F7A389B4898C919589892B8C93FF91FD
:1024F000EF91BF91AF919F918F917F916F915F917C
:102500004F913F912F910F900FBE0F901F901895F4
:102510002BE231E0FC01318320830C94CF111F9317
:10252000CF93DF93EC01162F6E8D6695617081E07D
:102530006827812F0E94A11761E0812F0E946817F0
:10254000812F90E0FC01E458FF4FE491E88BFC01FF
:10255000E057FF4FE491F0E0EE0FFF1FE255FF4F11
:10256000859194919A8B898BDF91CF911F910895DA
:102570001F93CF93DF93EC01162F60E0812F0E9411
:1025800068178E8D81FD04C061E0812F0E94A11724
:102590001C87812F90E0FC01E458FF4FE491ED8708
:1025A000FC01E057FF4FE491F0E0EE0FFF1FEC5508
:1025B000FF4F859194919F878E87DF91CF911F91D7
:1025C0000895FF920F931F93CF93DF93EC01F62EA4
:1025D000522F1B821A8208EE13E020E030E00C83B9
:1025E0001D832E833F838BE291E0998388831F8A2A
:1025F0001E8A198E188E1B8E1A8E1D8E1C8E8E8D25
:102600008E7F50FB81F98E8F642FCE010E948F1236
:102610006F2DCE01DF91CF911F910F91FF900C9400
:10262000B812CF93DF93EC019A01AB011B8E1A8E87
:10263000198E188E1F8A1E8A60E079E08DE390E083
:102640000E94FD21C9012430310520F0B9016350F9
:10265000710902C061E070E07D8F6C8FEC85E6311E
:1026600008F068C0B901769567956431710518F076
:102670006351710902C061E070E07F8B6E8B069739
:1026800018F0C901059702C081E090E0998F888F0A
:10269000C901880F991F820F931F9695879596956C
:1026A00087958D30910510F00C9702C081E090E085
:1026B0009B8F8A8F20916800E83050F091E0EE30D7
:1026C00008F490E081E001C0880F9A95EAF701C014
:1026D00084E0822B809368002C85283038F02E30DF
:1026E00040F0263148F48CE690E008C08DE690E09A
:1026F00005C08BE690E002C080E090E09C8B8B8B65
:10270000283030F481E001C0880F2A95EAF70DC027
:10271000822F90E02E3010F4089701C00E9791E0C0
:1027200001C0990F8A95EAF7892F8D8B8C8D9D8D2D
:102730000197F1F7CE01DF91CF910C94E511CF9382
:10274000CFB7F89480915B02811127C0EAE9F0E0ED
:102750008491E6E8F0E09491E82FF0E0EE0FFF1F9F
:10276000E854FF4FA591B4918C91892321F461E045
:102770008AE00E94A11761E08AE00E9468178CB588
:1027800080618CBD8CB580648CBD61E08DE00E9461
:10279000681761E08BE00E94681780915B028F5F91
:1027A00080935B02CFBFCF91089580918C0290E01F
:1027B00020918D02821B9109089520918D028091B4
:1027C0008C02281750F4E22FF0E0E257FD4F808191
:1027D00090E02F5F20938D0208958FEF9FEF089573
:1027E000E0918D0280918C02E81730F4F0E0E2571E
:1027F000FD4F808190E008958FEF9FEF0895089539
:10280000CF92DF92EF92FF920F931F93CF93DF93BC
:102810007C01CB018A0120916802222389F0EB011F
:102820006B01C40ED51ECC15DD0569F06991D70189
:10283000ED91FC910190F081E02DC7010995F3CF56
:10284000642F0E940D15C801DF91CF911F910F9148
:10285000FF90EF90DF90CF900895CF93DF931F927A
:10286000CDB7DEB76983209168022223D1F0209191
:102870006902203240F021E030E0FC013383228302
:1028800080E090E015C080916A02E82FF0E0E55901
:10289000FD4F998190838F5F80936A0280936902D4
:1028A00005C061E0CE0101960E940D1581E090E027
:1028B0000F90DF91CF910895FC011382128248EEB0
:1028C00053E060E070E044835583668377838BE355
:1028D00091E091838083089510928D0210928C0272
:1028E00010926A02109269020C949C1481E0809309
:1028F000680260938B0210926A0210926902089536
:102900000C9476140F93062F21E0409169026BE638
:1029100072E080918B020E94BA1410926A021092A7
:102920006902109268020F91089561E00C9482147C
:102930008CE592E00C945C1410921B0381E0809370
:1029400019031092180361E082E10E94A11761E06F
:1029500083E10E94A117E9EBF0E080818E7F808304
:1029600080818D7F808388E48093B80085E48093A4
:10297000BC0008950F93413208F046C090911B03AC
:102980009111FCCF92E090931B03009319039FEFEA
:102990009093AE021092F3024093F202FB0164EFB7
:1029A00072E0DB019A2F961B941718F491919D9376
:1029B000F9CF10921A0390911A03880F892B8093F4
:1029C0001A0380911803813041F41092180380910A
:1029D0001A038093BB0085EC01C085EE8093BC0098
:1029E000222321F080911B038230E1F38091AE021B
:1029F0008F3F61F08091AE02803251F08091AE0243
:102A0000803341F483E007C081E005C080E003C06B
:102A100082E001C084E00F910895613298F4209122
:102A20001B03243089F46093D002FC0182ED92E014
:102A3000DC012A2F281B261718F421912D93F9CF9A
:102A400080E0089581E0089582E0089585ED809307
:102A5000BC008091BC0084FDFCCF10921B03089544
:102A600085EC8093BC0010921B0308951F920F9277
:102A70000FB60F9211242F933F934F935F936F9351
:102A80007F938F939F93AF93BF93EF93FF93809127
:102A9000B900887F803609F49CC068F5883209F453
:102AA0005BC090F4803109F454C038F4882309F4F1
:102AB000F5C0883009F44DC0F5C0883109F44CC028
:102AC000803209F45DC0EEC0803409F468C048F477
:102AD000803309F455C0883309F0E4C08093AE0216
:102AE000A8C0803509F44FC0883509F45DC088342A
:102AF00009F0D8C0D5C0883909F4C6C0A8F4883711
:102B000009F467C038F4883609F463C0803709F4E3
:102B100060C0C8C0883809F4B7C0803909F45FC004
:102B2000803809F0BFC05BC0803B09F485C038F431
:102B3000803A09F466C0883A09F47EC0B3C0803C8C
:102B400009F4A6C0883C09F4A3C0883B09F489C0F5
:102B5000A9C080911A0310C09091F3028091F202F3
:102B6000981770F5E091F30281E08E0F8093F302E5
:102B7000F0E0EC50FD4F80818093BB0085EC85C078
:102B80008093AE028DC0E091F30281E08E0F8093BE
:102B9000F3028091BB00F0E0EC50FD4F80839091F8
:102BA000F3028091F2026DC0E091F30281E08E0F9A
:102BB0008093F3028091BB00F0E0EC50FD4F8083E6
:102BC0008091190381116CC081E08093180384EA1D
:102BD00060C083E080931B031092AF02CFCF80913F
:102BE000AF02803208F050C0E091AF0281E08E0F5A
:102BF0008093AF028091BB00F0E0E055FD4F8083F1
:102C0000BDCF8091AF02803230F4E091AF02F0E0AE
:102C1000E055FD4F10820E9426156091AF0270E0D2
:102C2000E0911403F091150380EB92E00995109266
:102C3000AF020E94301536C084E080931B031092CF
:102C4000D1021092D002E0911603F091170309957A
:102C50008091D002811105C081E08093D002109252
:102C6000D202E091D10281E08E0F8093D102F0E098
:102C7000EE52FD4F80818093BB009091D1028091F4
:102C8000D002981708F47ACF85E88093BC000AC078
:102C900085EC8093BC0010921B0304C01092AE021E
:102CA0000E942615FF91EF91BF91AF919F918F9157
:102CB0007F916F915F914F913F912F910F900FBE38
:102CC0000F901F9018951F920F920FB60F9211241C
:102CD0002F933F938F939F93AF93BF9380911D0347
:102CE00090911E03A0911F03B091200330911C030B
:102CF00023E0230F2D3720F40196A11DB11D05C03F
:102D000026E8230F0296A11DB11D20931C0380937A
:102D10001D0390931E03A0931F03B0932003809183
:102D2000210390912203A0912303B09124030196E3
:102D3000A11DB11D8093210390932203A09323032F
:102D4000B0932403BF91AF919F918F913F912F91A9
:102D50000F900FBE0F901F9018952FB7F8946091A9
:102D60001D0370911E0380911F03909120032FBFBC
:102D700008953FB7F8948091210390912203A09188
:102D80002303B091240326B5A89B05C02F3F19F05B
:102D90000196A11DB11D3FBF6627782F892F9A2F5D
:102DA000620F711D811D911D42E0660F771F881F04
:102DB000991F4A95D1F70895CF92DF92EF92FF9233
:102DC000CF93DF936B017C010E94B916EB01C11414
:102DD000D104E104F10489F00E940B1F0E94B9168E
:102DE0006C1B7D0B683E734090F381E0C81AD108DC
:102DF000E108F108C851DC4FEACFDF91CF91FF9095
:102E0000EF90DF90CF900895789484B5826084BD70
:102E100084B5816084BD85B5826085BD85B58160DE
:102E200085BDEEE6F0E0808181608083E1E8F0E03E
:102E30001082808182608083808181608083E0E86D
:102E4000F0E0808181608083E1EBF0E0808184604C
:102E50008083E0EBF0E0808181608083EAE7F0E04E
:102E600080818460808380818260808380818160B2
:102E700080838081806880831092C10008958330B0
:102E800081F028F4813099F08230A1F008958730E4
:102E9000A9F08830B9F08430D1F4809180008F7D22
:102EA00003C0809180008F7780938000089584B55F
:102EB0008F7702C084B58F7D84BD08958091B00066
:102EC0008F7703C08091B0008F7D8093B00008950C
:102ED000CF93DF9390E0FC01E458FF4F2491FC0175
:102EE000E057FF4F8491882349F190E0880F991FA4
:102EF000FC01E854FF4FA591B49182559F4FFC010E
:102F0000C591D4919FB7611108C0F8948C91209518
:102F100082238C93888182230AC0623051F4F89412
:102F20008C91322F309583238C938881822B8883D8
:102F300004C0F8948C91822B8C939FBFDF91CF912A
:102F400008950F931F93CF93DF931F92CDB7DEB7F2
:102F5000282F30E0F901E859FF4F8491F901E45836
:102F6000FF4F1491F901E057FF4F04910023C9F07E
:102F7000882321F069830E943F176981E02FF0E0E8
:102F8000EE0FFF1FE255FF4FA591B4919FB7F89444
:102F90008C91611103C01095812301C0812B8C930A
:102FA0009FBF0F90DF91CF911F910F910895CF9305
:102FB000DF93282F30E0F901E859FF4F8491F901A0
:102FC000E458FF4FD491F901E057FF4FC491CC234F
:102FD00091F081110E943F17EC2FF0E0EE0FFF1FE0
:102FE000EC55FF4FA591B4912C912D2381E090E0F9
:102FF00021F480E002C080E090E0DF91CF9108955D
:1030000008950E9404170E9400180E94F206C0E072
:10301000D0E00E94BE0D2097E1F30E940000F9CF9E
:10302000CF92DF92EF92FF920F931F93CF93DF9394
:103030006C017A01EB01E60EF71E00E010E0CE1500
:10304000DF0561F06991D601ED91FC910190F0816D
:10305000E02DC6010995080F191FF1CFC801DF91B6
:10306000CF911F910F91FF90EF90DF90CF90089537
:103070000C943B05DC01ED91FC910190F081E02D79
:1030800009940F931F93CF93DF93EC016DE00E949F
:103090003A188C016AE0CE010E943A18800F911F05
:1030A000DF91CF911F910F9108958F929F92AF92D0
:1030B000BF92CF92DF92EF92FF920F931F93CF9325
:1030C000DF93CDB7DEB7A1970FB6F894DEBF0FBE82
:1030D000CDBF7C01C42EE52FCB01D22E19A221E059
:1030E0002D1510F02AE0D22E8E010F5D1F4F8D2C72
:1030F000912CA12CB12C6C2D7E2FA50194010E9446
:10310000DB218C2DD29E80191124015011098A30A7
:1031100014F4805D01C0895CF801808321153105BC
:103120004105510521F0C22EE32FCA01E4CFB801B9
:10313000C7010E943B05A1960FB6F894DEBF0FBEF3
:10314000CDBFDF91CF911F910F91FF90EF90DF9056
:10315000CF90BF90AF909F908F900895CF92DF92C5
:10316000EF92FF920F931F93CF93DF93EC016A01CD
:103170007B012115310579F4E881F9810190F08115
:10318000E02D642FDF91CF911F910F91FF90EF9071
:10319000DF90CF9009942A303105E9F477FF1AC007
:1031A0006DE20E943A188C0144275527BA014C1948
:1031B0005D096E097F092AE0CE010E945518800F33
:1031C000911FDF91CF911F910F91FF90EF90DF90B2
:1031D000CF9008952AE0B701A601CE01DF91CF91EB
:1031E0001F910F91FF90EF90DF90CF900C945518A6
:1031F0009A01AB01662757FD6095762F0C94AE18A7
:103200000F931F93CF93DF93EC019A01AB016627D5
:1032100057FD6095762F0E94AE188C01CE010E945A
:103220004118800F911FDF91CF911F910F91089549
:103230002115310541F4DC01ED91FC910190F08103
:10324000E02D642F09940C9455184F925F926F9261
:103250007F928F929F92AF92BF92CF92DF92EF9226
:10326000FF920F931F93CF93DF93EC016A017B01D1
:10327000B22E9A01AB01C701B6010E94B321882387
:1032800019F067E471E027C026013701E89477F868
:103290002FEF3FEF4FE75FE7C301B2010E94B32179
:1032A00081110DC02FEF3FEF4FE75FE7C301B20180
:1032B0000E94711F18161CF46BE471E00CC02FEF14
:1032C0003FEF4FE75FE4C701B6010E944C2118169B
:1032D000ACF46FE471E0CE01DF91CF911F910F91BB
:1032E000FF90EF90DF90CF90BF90AF909F908F9026
:1032F0007F906F905F904F900C943B052FEF3FEFC6
:103300004FE75FECC701B6010E94711F87FDE1CF57
:1033100020E030E0A901C701B6010E94711F87FFBC
:103320000AC06DE2CE010E943A188C01F7FAF094BF
:10333000F7F8F09402C000E010E0A12C60E070E02B
:1033400080E09FE3AB1441F020E030E040E251E444
:103350000E94751FA394F6CF9B01AC01C701B60173
:103360000E940D1F6B017C010E941C202B013C015F
:103370000E944C209B01AC01C701B6010E940C1FAA
:103380006B017C012AE0B301A201CE010E94551815
:10339000080F191FBB2039F063E571E0CE010E94D0
:1033A0003B05080F191F7B2C772041F120E030E00E
:1033B00040E251E4C701B6010E9450216B017C013B
:1033C0000E9417204B01AA2497FCA094BA2C2AE053
:1033D00030E0B501A401CE010E94AE18080F191FFC
:1033E000C501B4010E944E209B01AC01C701B6018A
:1033F0000E940C1F6B017C017A94D6CFC801DF912B
:10340000CF911F910F91FF90EF90DF90CF90BF90E1
:10341000AF909F908F907F906F905F904F900895A6
:103420000C9425193F924F925F926F927F928F92E8
:103430009F92AF92BF92CF92DF92EF92FF920F9343
:103440001F93CF93DF9300D000D0CDB7DEB78B01B1
:1034500029013A0190911E01981721F09F3F09F030
:10346000DAC104C0E2ECF0E0349081C080931E0128
:10347000E2ECF0E0E491EF3F09F4CDC1E13031F14D
:10348000E23009F44BC0E11171C014BC15BC94B515
:10349000926094BD95B5916095BD282F30E0F901FB
:1034A000E057FF4FE491F0E0EE0FFF1FE255FF4FB2
:1034B000459154915093350340933403F901E458F6
:1034C000FF4F249120933303312C53C0109280007E
:1034D000109281009091810098609093810090916A
:1034E0008100916090938100282F30E0F901E0572E
:1034F000FF4FE491F0E0EE0FFF1FE255FF4F4591C3
:10350000549150932E0340932D03F901E458FF4F3B
:10351000249120932C03332433942BC01092B000B9
:103520001092B1009091B00092609093B000909191
:10353000B10091609093B100282F30E0F901E0577D
:10354000FF4FE491F0E0EE0FFF1FE255FF4F459172
:1035500054915093270340932603F901E458FF4FF9
:1035600024912093250352E0352E03C03E2E37FCD4
:1035700052C161E00E9468174801A12CB12C832D33
:103580008D7F09F0C7C060E072E18AE790E0A50195
:1035900094010E94FD2129833A834B835C83690156
:1035A0007A0181E0C81AD108E108F1089FEFC91635
:1035B000D104E104F10409F008F49AC060E472E473
:1035C0008FE090E0A50194010E94FD2169017A013C
:1035D000E1E0CE1AD108E108F108F2E03F1219C08B
:1035E0008FEFC816D104E104F10409F008F48AC091
:1035F00060E970ED83E090E0A50194010E94FD2157
:1036000069017A0191E0C91AD108E108F10883E063
:1036100001C082E0EFEFCE16D104E104F10409F01D
:1036200008F467C068E478EE81E090E0A5019401B9
:103630000E94FD2169017A01F1E0CF1AD108E10869
:10364000F1083320E1F082E038121BC09FEFC91669
:10365000D104E104F10409F008F4DBC064E274EF82
:1036600080E090E0A50194010E94FD2169017A01AA
:10367000E1E0CE1AD108E108F10885E003C083E05B
:1036800001C084E0FFEFCF16D104E104F10489F119
:1036900080F162E17AE780E090E0A50194010E9468
:1036A000FD2169017A0181E0C81AD108E108F10819
:1036B000311002C084E001C086E09FEFC916D1043A
:1036C000E104F104B1F0A8F0C980DA80EB80FC805D
:1036D0009AE0F594E794D794C7949A95D1F7E1E0EE
:1036E000CE1AD108E108F108332031F087E00BC091
:1036F00081E0332011F007C085E095B5987F982BC5
:1037000095BD38C082E09091B100987F982B90933E
:10371000B10030C060E072E18AE790E0A501940159
:103720000E94FD2169017A01F1E0CF1AD108E10878
:10373000F108C114D10481E0E806F10488F068E4DE
:1037400078EE81E090E0A50194010E94FD216901DD
:103750007A0191E0C91AD108E108F10893E001C0AB
:1037600091E0E1E03E1206C080918100887F892BC4
:1037700080938100411451046104710471F0D801F7
:10378000AA0FBB1FA30192010E941C2228EE33E066
:1037900040E050E00E94DB2103C02FEF3FEFA90182
:1037A000F1E03F16A1F082E0381619F1311033C074
:1037B000C7BC2093360330933703409338035093AC
:1037C000390380916E00826080936E0024C0D09295
:1037D0008900C092880020932F03309330034093D8
:1037E00031035093320380916F00826080936F00A9
:1037F00012C0C092B3002093280330932903409352
:103800002A0350932B038091700082608093700094
:1038100002C084E078CF0F900F900F900F90DF914F
:10382000CF911F910F91FF90EF90DF90CF90BF90BD
:10383000AF909F908F907F906F905F904F903F9050
:103840000895813039F018F0823051F008951092C7
:103850006E00089580916F008D7F80936F000895B2
:10386000809170008D7F8093700081E08093B00024
:103870008091B100887F84608093B1001092B30082
:103880000895CF93C82F80911E018C1307C0E2ECDE
:10389000F0E084919FEF90931E0101C08FEF0E9492
:1038A000211C60E08C2FCF910C94A1171F920F92D6
:1038B0000FB60F9211242F933F934F935F936F9303
:1038C0007F938F939F93AF93BF93EF93FF938091D9
:1038D000280390912903A0912A03B0912B03892BEF
:1038E0008A2B8B2B51F190912503E0912603F091C7
:1038F0002703808189278083809128039091290361
:10390000A0912A03B0912B03181619061A061B065C
:10391000C4F48091280390912903A0912A03B091C7
:103920002B030197A109B1098093280390932903E0
:10393000A0932A03B0932B0304C080911E010E9420
:10394000411CFF91EF91BF91AF919F918F917F911A
:103950006F915F914F913F912F910F900FBE0F90FC
:103960001F9018954F925F926F927F92AF92BF9285
:10397000CF92DF92EF92FF920F931F93CF93DF933B
:10398000CDB7DEB729013A01621B730B840B950B8F
:1039900029893A894B895C892A193B094C095D09B7
:1039A000298B3A8B4B8B5C8B9B01AC0169897A89A3
:1039B0008B899C890E94B721E418F508060917092C
:1039C000A80197010E94FD212A0D3B1D4C1D5D1D84
:1039D000CA01B901DF91CF911F910F91FF90EF9034
:1039E000DF90CF90BF90AF907F906F905F904F909F
:1039F0000895FC01808191810C943824CF93DF934A
:103A0000EC0188819981009711F00E943824198275
:103A100018821D821C821B821A82DF91CF91089529
:103A20000F931F93CF93DF93EC018B016F5F7F4F59
:103A3000888199810E94C724009731F099838883F7
:103A40001B830A8381E001C080E0DF91CF911F9149
:103A50000F910895CF93DF93EC0188819981892B91
:103A600029F08A819B818617970760F4CE010E9416
:103A7000101D882341F08C819D81892B19F4E881E8
:103A8000F981108281E0DF91CF910895EF92FF924A
:103A90000F931F93CF93DF93EC017B018A01BA014F
:103AA0000E942A1D811104C0CE010E94FE1C07C085
:103AB0001D830C83B701888199810E94A625CE01C0
:103AC000DF91CF911F910F91FF90EF900895FC012E
:103AD000118210821382128215821482611571057F
:103AE00059F0FB0101900020E9F7AF014150510965
:103AF000461B570B0C94461D0895CF93DF93EC01A2
:103B0000FB018617970761F060817181611571056E
:103B100029F0448155810E94461D02C00E94FE1C6E
:103B2000CE01DF91CF910895CF93DF93EC01611522
:103B3000710561F0FB0101900020E9F7AF014150F0
:103B40005109461B570B0E94461D02C00E94FE1CD5
:103B5000CE01DF91CF9108950F931F93CF93DF9301
:103B6000CDB7DEB729970FB6F894DEBF0FBECDBF35
:103B70008C01862FF8011182108213821282158225
:103B8000148250E0BE016F5F7F4F90E00E94F025ED
:103B9000BE016F5F7F4FC8010E94941D29960FB62A
:103BA000F894DEBF0FBECDBFDF91CF911F910F9173
:103BB00008950F931F93CF93DF93CDB7DEB762972E
:103BC0000FB6F894DEBF0FBECDBF8C01CB01F8015C
:103BD00011821082138212821582148250E0BE017B
:103BE0006F5F7F4F0E94AD25BE016F5F7F4FC801A1
:103BF0000E94941D62960FB6F894DEBF0FBECDBF33
:103C0000DF91CF911F910F9108950F931F93CF9341
:103C1000DF93CDB7DEB7A1970FB6F894DEBF0FBE26
:103C2000CDBF8C01CB01BA01F80111821082138241
:103C300012821582148230E0AE014F5F5F4F0E9406
:103C4000C325BE016F5F7F4FC8010E94941DA196DE
:103C50000FB6F894DEBF0FBECDBFDF91CF911F919D
:103C60000F910895EF92FF920F931F93CF93DF93DD
:103C7000CDB7DEB7A1970FB6F894DEBF0FBECDBFAC
:103C80007C01CB01BA01F7011182108213821282EA
:103C90001582148242E0420F8E010F5F1F4F0E9477
:103CA0007F23BC01C7010E94941DA1960FB6F89412
:103CB000DEBF0FBECDBFDF91CF911F910F91FF905F
:103CC000EF900895EF92FF920F931F93CF93DF939E
:103CD000EC017B010C811D816115710511F480E0FF
:103CE00016C04115510591F0040F151FB8010E942F
:103CF0002A1D8823A1F3288139818C819D81B701F8
:103D0000820F931F0E94A6251D830C8381E0DF9103
:103D1000CF911F910F91FF90EF900895CF93DF9374
:103D2000EC01FB0144815581608171810E94621E1A
:103D3000811103C0CE010E94FE1CCE01DF91CF9104
:103D40000895CF93DF93EC016115710569F0FB01D4
:103D500001900020E9F7AF0141505109461B570B74
:103D60000E94621E811103C0CE010E94FE1CCE0182
:103D7000DF91CF910895BF92CF92DF92EF92FF92A1
:103D80000F931F93CF93DF936C017B01EA018901AD
:103D90002417350720F48D2FE901042F182F63E233
:103DA00071E0C6010E94671DD70114968D919C9108
:103DB0001597C817D907C8F48017910708F48C0124
:103DC000D701ED91FC911197E00FF11FB0801082A7
:103DD0006D917C916C0F7D1FC6010E94941DD701CF
:103DE000ED91FC91E00FF11FB082C601DF91CF9100
:103DF0001F910F91FF90EF90DF90CF90BF900895AB
:103E0000FC0180819181009711F00C94912560E074
:103E100070E0CB01089508955058BB27AA270ED013
:103E200001C2F2D130F0F7D120F031F49F3F11F40C
:103E30001EF4D7C10EF4E095E7FBCDC1E92F03D204
:103E400080F3BA17620773078407950718F071F4B7
:103E50009EF51BC20EF4E0950B2EBA2FA02D0B0180
:103E6000B90190010C01CA01A0011124FF27591BBF
:103E700099F0593F50F4503E68F11A16F040A22FC5
:103E8000232F342F4427585FF3CF46953795279536
:103E9000A795F0405395C9F77EF41F16BA0B620B35
:103EA000730B840BBAF09150A1F0FF0FBB1F661F7C
:103EB000771F881FC2F70EC0BA0F621F731F841FBF
:103EC00048F4879577956795B795F7959E3F08F0E5
:103ED000B3CF9395880F08F09927EE0F97958795A4
:103EE000089555D108F481E008950CD09BC193D179
:103EF00040F08AD130F021F45F3F19F06CC15111CC
:103F0000C5C16FC1A0D198F39923C9F35523B1F36B
:103F1000951B550BBB27AA2762177307840738F038
:103F20009F5F5F4F220F331F441FAA1FA9F333D097
:103F30000E2E3AF0E0E830D091505040E695001C4B
:103F4000CAF729D0FE2F27D0660F771F881FBB1F07
:103F5000261737074807AB07B0E809F0BB0B802DE1
:103F6000BF01FF2793585F4F2AF09E3F510568F02D
:103F700032C18CC15F3FECF3983EDCF386957795B8
:103F80006795B795F7959F5FC9F7880F911D96952F
:103F9000879597F90895E1E0660F771F881FBB1F8B
:103FA000621773078407BA0720F0621B730B840B38
:103FB000BA0BEE1F88F7E0950895BEE304D008F42D
:103FC00090E80895BFE322273327A90144D158F18F
:103FD0009F5740F1B91738F1BFE3B91B9927B85083
:103FE0003AF4660F771F881F991FB395D2F316C056
:103FF000B8504AF0232F342F452F562F672F782F94
:104000008827B850BAF7B85F49F0869577956795D5
:104010005795479537952795BA95B9F70EF4E4D09B
:1040200088940895889460E070E0CB01089504D0EE
:104030006894B1112BC108950ED188F09F5790F06C
:10404000B92F9927B751A0F0D1F0660F771F881FBD
:10405000991F1AF0BA95C9F712C0B13081F015D185
:10406000B1E0089512C1672F782F8827B85F39F023
:10407000B93FCCF3869577956795B395D9F73EF41C
:1040800090958095709561957F4F8F4F9F4F0895C4
:1040900097FB0EF4A9D03EC0E89409C097FB3EF40C
:1040A00090958095709561957F4F8F4F9F4F992385
:1040B000A9F0F92F96E9BB279395F6958795779503
:1040C0006795B795F111F8CFFAF4BB0F11F460FFC3
:1040D0001BC06F5F7F4F8F4F9F4F16C0882311F01B
:1040E00096E911C0772321F09EE8872F762F05C02F
:1040F000662371F096E8862F70E060E02AF09A95CA
:10410000660F771F881FDAF7880F9695879597F9BE
:104110000895E894F92F96EBFF2381F01216130609
:104120001406440B9395F695879577956795579563
:104130004040FF23B9F71BC099270895882351F405
:104140009850D2F7872B762F652F542F432F322F7D
:1041500020E0B1F3121613061406440B88233AF03C
:104160009A95440F551F661F771F881FCAF755235E
:104170004AF4440F551F11F460FF04C06F5F7F4F76
:104180008F4F9F4F880F9695879597F90895990FB0
:104190000008550FAA0BE0E8FEEF16161706E80711
:1041A000F907C0F012161306E407F50798F0621B32
:1041B000730B840B950B39F40A2661F0232B242B07
:1041C000252B21F408950A2609F4A140A6958FEF26
:1041D000811D811D089597F99F6780E870E060E078
:1041E00008959FEF80EC0895909580957095609567
:1041F00050954095309521953F4F4F4F5F4F6F4FF2
:104200007F4F8F4F9F4F089500240A94161617066C
:1042100018060906089500240A94121613061406B7
:1042200005060895092E0394000C11F4882352F01A
:10423000BB0F40F4BF2B11F460FF04C06F5F7F4FD2
:104240008F4F9F4F089557FD9058440F551F59F0B9
:104250005F3F71F04795880F97FB991F61F09F3F73
:1042600079F087950895121613061406551FF2CF9C
:104270004695F1DF08C0161617061806991FF1CFEC
:1042800086957105610508940895E894BB27662713
:104290007727CB0197F908957ADF08F48FEF089517
:1042A0000BD0C0CFB1DF28F0B6DF18F0952309F0AE
:1042B00092CF97CF1124EACFC6DFA0F3959FD1F319
:1042C000950F50E0551F629FF001729FBB27F00DC4
:1042D000B11D639FAA27F00DB11DAA1F649F662719
:1042E000B00DA11D661F829F2227B00DA11D621F68
:1042F000739FB00DA11D621F839FA00D611D221F22
:10430000749F3327A00D611D231F849F600D211D05
:10431000822F762F6A2F11249F5750408AF0E1F0A8
:1043200088234AF0EE0FFF1FBB1F661F771F881FF1
:1043300091505040A9F79E3F510570F04CCFA6CF49
:104340005F3FECF3983EDCF3869577956795B795DC
:10435000F795E7959F5FC1F7FE2B880F911D969506
:10436000879597F9089513DF880B990B0895DB0162
:104370008F939F930E941C22BF91AF91A29F800DAB
:10438000911DA39F900DB29F900D1124089597FB4E
:10439000072E16F4009407D077FD09D00E9456230B
:1043A00007FC05D03EF4909581959F4F0895709538
:1043B00061957F4F0895A1E21A2EAA1BBB1BFD0138
:1043C0000DC0AA1FBB1FEE1FFF1FA217B307E407F4
:1043D000F50720F0A21BB30BE40BF50B661F771F4C
:1043E000881F991F1A9469F760957095809590952C
:1043F0009B01AC01BD01CF010895052E97FB1EF472
:1044000000940E94142257FD07D00E94DB2107FC74
:1044100003D04EF40C94142250954095309521957C
:104420003F4F4F4F5F4F08959095809570956195E0
:104430007F4F8F4F9F4F08950E947023A59F900D2F
:10444000B49F900DA49F800D911D11240895689430
:1044500001C0E894F92FF12B12F00C945B22A0E03C
:10446000B0E0E5E3F2E20C94CD22092E059422F4AB
:104470000E94B722112392F4F0E80F26FFEFE09498
:10448000F09400951095B094C094D094A194BF0A74
:10449000CF0ADF0AEF0AFF0A0F0B1F0B0E946622EA
:1044A00007FC0E94B722CDB7DEB7ECE00C94E922FE
:1044B000689401C0E8948F929F92CF93DF930E94FB
:1044C0006622DF91CF919F908F9008958824992440
:1044D000F401E401B0E49F93AA279A158B049C048D
:1044E000ED05FE05CF05D007A10798F4AD2FDC2F11
:1044F000CF2FFE2FE92D982C892E982F872F762FDE
:10450000652F542F432F322F2227B85031F7BF91F8
:1045100027C01B2EBF91BB27220F331F441F551FDF
:10452000661F771F881F991F881C991CEE1FFF1F8D
:10453000CC1FDD1FAA1FBB1F8A149B04EC05FD05C1
:10454000CE05DF05A007B10748F08A189B08EC09E3
:10455000FD09CE09DF09A00BB10B21601A94E1F629
:104560002EF49401AF01BE01CD01000C08956095B9
:1045700070958095909530954095509521953F4F39
:104580004F4F5F4F6F4F7F4F8F4F9F4F08952F9229
:104590003F924F925F926F927F928F929F92AF92D3
:1045A000BF92CF92DF92EF92FF920F931F93CF9320
:1045B000DF93CDB7DEB7CA1BDB0B0FB6F894DEBFB7
:1045C0000FBECDBF09942A88398848885F846E84DD
:1045D0007D848C849B84AA84B984C884DF80EE8027
:1045E000FD800C811B81AA81B981CE0FD11D0FB630
:1045F000F894DEBF0FBECDBFED0108950F930830D4
:1046000090F0982F872F762F652F542F432F322F1E
:1046100022270850F4CF220F331F441F551F661F57
:10462000771F881F991F0A95B2F70F91089597FB7E
:1046300010F8169400080F93083098F00850232FB4
:10464000342F452F562F672F782F892F902DF4CF99
:1046500005949795879577956795579547953795DD
:1046600027950A95AAF70F9108952A0D3B1D4C1D19
:104670005D1D6E1D7F1D801F911F08950024A7FDE5
:1046800000942A0F301D401D501D601D701D801D9F
:10469000901D08950024A7FD00942A1730054005B9
:1046A000500560057005800590050895AA1BBB1B89
:1046B00051E107C0AA1FBB1FA617B70710F0A61B22
:1046C000B70B881F991F5A95A9F780959095BC0143
:1046D000CD010895EE0FFF1F0590F491E02D099490
:1046E000A29FB001B39FC001A39F700D811D112433
:1046F000911DB29F700D811D1124911D0895EF929F
:104700000F931F93CF93DF93E80147FF02C034E17B
:1047100001C034E0E42FFF27E7FDF095F7FF03C069
:10472000F195E195F109E32E022F2E2FAE010E94A3
:104730001526CE01DF91CF911F910F91EF90089533
:10474000CF93DF938230910510F482E090E0E09106
:104750003C03F0913D0320E030E0A0E0B0E0309772
:1047600039F14081518148175907B8F04817590766
:1047700071F482819381109729F013969C938E9304
:1047800012972CC090933D0380933C0327C02115C2
:10479000310531F04217530718F0A901DB0101C0C0
:1047A000EF019A01BD01DF010280F381E02DD7CF37
:1047B00021153105F9F0281B390B2430310580F41F
:1047C0008A819B816115710521F0FB0193838283AE
:1047D00004C090933D0380933C03FE01329644C095
:1047E000FE01E20FF31F8193919322503109398327
:1047F00028833AC020913A0330913B03232B41F4A4
:10480000209102013091030130933B0320933A033E
:1048100020910001309101012115310541F42DB79E
:104820003EB74091040150910501241B350BE091E6
:104830003A03F0913B03E217F307A0F42E1B3F0B62
:104840002817390778F0AC014E5F5F4F2417350702
:1048500048F04E0F5F1F50933B0340933A03819300
:10486000919302C0E0E0F0E0CF01DF91CF91089595
:10487000CF93DF93009709F487C0FC01329713822E
:104880001282C0913C03D0913D03209781F4208196
:104890003181280F391F80913A0390913B03821791
:1048A000930779F5F0933B03E0933A036DC0DE0183
:1048B00020E030E0AE17BF0750F412964D915C91A6
:1048C00013979D014115510509F1DA01F3CFB38327
:1048D000A28340815181840F951F8A179B0771F431
:1048E0008D919C911197840F951F029691838083DF
:1048F00012968D919C911397938382832115310594
:1049000029F4F0933D03E0933C033EC0D901139694
:10491000FC93EE9312974D915D91A40FB51FEA178A
:10492000FB0779F480819181840F951F0296D9014C
:1049300011969C938E938281938113969C938E9370
:104940001297E0E0F0E08A819B81009719F0FE0168
:10495000EC01F9CFCE01029628813981820F931F95
:1049600020913A0330913B032817390769F43097B7
:1049700029F410923D0310923C0302C0138212826C
:10498000D0933B03C0933A03DF91CF910895A0E009
:10499000B0E0EDECF4E20C94CB22EC01CB012097DB
:1049A00019F40E94A023B8C0FE01E60FF71F9E0174
:1049B00022503109E217F30708F4ACC0D9010D9178
:1049C0001C91119706171707B8F00530110508F468
:1049D0009FC0A801445051094617570708F498C0D2
:1049E00002501109061B170B019311936D937C93D1
:1049F000CF010E9438248CC05B01A01AB10A4E017D
:104A0000800E911EA0913C03B0913D03612C712C4E
:104A100060E070E0109709F449C0A815B905C9F520
:104A2000ED90FC901197670142E0C40ED11CCA14AE
:104A3000DB0478F147018A189B08640142E0C40E48
:104A4000D11C1296BC9012971396AC91B5E0CB1680
:104A5000D10440F0B282A38391828082D9018D93E8
:104A60009C9309C00E5F1F4F0E0D1F1DF90111838E
:104A70000083EB2DFA2F6115710531F0DB011396E0
:104A8000FC93EE93129744C0F0933D03E0933C03F4
:104A90003FC06D917C9111976616770608F43B0133
:104AA000BD0112960D90BC91A02DB4CF60913A0338
:104AB00070913B0368157905E9F468167906D0F41E
:104AC00040910001509101014115510541F44DB74C
:104AD0005EB76091040170910501461B570BE41706
:104AE000F507C0F4F0933B03E0933A03F901918397
:104AF00080830EC00E94A0237C01009759F0A8017A
:104B0000BE010E949D25CE010E943824C70104C029
:104B1000CE0102C080E090E0CDB7DEB7EEE00C94AD
:104B2000E722662777270C949327911137C48032A8
:104B300019F089508550D0F70895FB01DC0102C0BF
:104B400001900D9241505040D8F70895FB01DC01CF
:104B500001900D920020E1F708954532510520F4AF
:104B6000423010F00C94B825FB011082CB0108955F
:104B7000BB274A3031F4992322F4BDE29095819508
:104B80009F4F0C94FC252532310520F4223010F083
:104B90000C94CE25FA011082CA010895BB27FA01B0
:104BA000A62F6217710581059105330B30FB66F066
:104BB000AA27660F771F881F991FAA1FA21710F038
:104BC000A21B63953850A9F7A05DAA3308F0A95D30
:104BD000A19336F7B111B1931082CA010C94E9295F
:104BE0004532510520F4423010F00C94FB25FB01B6
:104BF0001082CB010895BB27FB015527AA27880FF8
:104C0000991FAA1FA41710F0A41B83955051B9F740
:104C1000A05DAA3308F0A95DA193009779F7B111BF
:104C2000B1931192CB010C94E9296F927F929F92DC
:104C3000AF92BF92CF92DF92EF92FF920F931F93AA
:104C4000CF93DF93CDB7DEB729970FB6F894DEBFC9
:104C50000FBECDBF6A01B22E102F0C3320F4FF24FB
:104C6000F394F00E02C04CE3F42E0F2D27E0AE01BA
:104C70004F5F5F4F0E94F6287981272F29702130DE
:104C800031F0E1FC06C0E0FC06C060E005C06DE26A
:104C900003C06BE201C060E2AE2DA07173FF36C0AD
:104CA000662311F084E001C083E08B1510F4B81A7C
:104CB00001C0B12CA1110BC0F6018B2D90E288230D
:104CC00019F091938150FBCFCB0CD11CB12C6623F2
:104CD00031F0F601608396012F5F3F4F6901C601F5
:104CE0000396E2FE05C02EE4F601208331E404C001
:104CF0002EE6F601208331E631832283FC012B2D41
:104D000030E22223F1F131932150FBCF72FF40C0FA
:104D1000662311F084E001C083E08B1510F4B81A0B
:104D200001C0B12CA1110BC0F6018B2D90E288239C
:104D300019F091938150FBCFCB0CD11CB12C662381
:104D400031F0F601608396012F5F3F4F6901C60184
:104D50000396E2FE07C029E4F60120832EE42183B6
:104D600026E406C029E6F60120832EE6218326E606
:104D70002283FC012B2D30E2222319F031932150A4
:104D8000FBCFFC01EB0DF11D10828EEF9FEFB7C042
:104D9000B1E0611101C0B0E04B2F50E018161906C8
:104DA00024F49C012F5F3F4F02C021E030E0240F2C
:104DB000351F112329F0412F50E04F5F5F4F02C094
:104DC00040E050E0420F531F2B2D30E042175307B5
:104DD00014F4B41A01C0B12C2E2D287159F4F60127
:104DE0002B2D30E2222319F031932150FBCFCB0C35
:104DF000D11CB12CBB2331F0F601608396012F5FEB
:104E00003F4F6901A1110BC0F6012B2D30E3222386
:104E100019F031932150FBCFCB0CD11CB12CF80EE3
:104E20000A81372F3071A32E74FF03C0013309F4B8
:104E3000FA941F142CF42F2D293018F028E001C00B
:104E400021E0682F392F97FF02C060E030E0462F45
:104E5000532F612C712C3EE2932EBC01621B710911
:104E60009B01DC01A41BB50BE1E0F0E0EC0FFD1FA2
:104E7000AE0FBF1FE12EF12CF194E194F1084F3FEA
:104E8000FFEF5F0731F4F6019082B6016F5F7F4F4D
:104E90006B01841795074CF02417350734F4BD01D6
:104EA000660D771DFB01118101C010E341505109CE
:104EB000FFEF6F1A7F0AB6016F5F7F4F4E155F05D8
:104EC00024F0F60110836B01DACF4817590739F443
:104ED000063320F4053319F4A11001C011E3F601E3
:104EE0001083FB018B2D90E2882319F09193815060
:104EF000FBCFFB01EB0DF11D108280E090E02996C5
:104F00000FB6F894DEBF0FBECDBFDF91CF911F91DA
:104F10000F91FF90EF90DF90CF90BF90AF909F9058
:104F20007F906F900895A0E0B0E0E9E9F7E20C947B
:104F3000CD228B016115710521F0DB018C93119657
:104F40009C93EC015E01BFEFAB1ABB0A7501C880F0
:104F50008C2D90E00E949525892B11F0E501F2CF70
:104F6000EDE2CE1208C07E01F2E0EF0EF11CC98026
:104F7000DD24D39409C02BE2C21205C07E0142E0B9
:104F8000E40EF11CC980D12CE701219743E050E0E9
:104F90006BEC70E0CE010E94D129892BC1F42396DD
:104FA00045E050E066EC70E0CE010E94D129892BEB
:104FB00009F425960115110519F0D801CD93DC935C
:104FC000D11006C160E070E080E89FE70AC143E0CD
:104FD00050E063EC70E0CE010E94D129892B59F496
:104FE0000115110509F4F9C0B2E0EB0EF11CF8014E
:104FF000F182E082F2C0F70160E070E0CB01C0E036
:10500000D0E07F01A0EDAA2EAC0C29E02A1530F1EA
:105010004D2D4260B42E2D2D2870D2FE04C02111DA
:1050200025C0219623C021112197A5E0B0E09B0166
:10503000AC010E941C22660F771F881F991F6A0D02
:10504000711D811D911D6839A9E97A078A07A9E1B7
:105050009A0760F0BD2DB660BB2E08C02EEFA212DD
:105060000AC0D3FC50C04D2D4860B42E3196D701F4
:10507000CC90DB2CC6CF2C2D2F7D253409F043C0DE
:10508000A081AD3241F4BD2DB061DB2E7F0122E065
:10509000E20EF11C0CC07F01AB3231F04FEFE41A8D
:1050A000F40A21E030E006C0A2E0EA0EF11CA18182
:1050B00022E030E0A053AA3018F0E21AF30A23C02D
:1050C000F70120E030E02038BCE03B075CF4A901A8
:1050D000440F551F440F551F240F351F220F331F38
:1050E0002A0F311DAF014F5F5F4F7A01A081A0539E
:1050F000AA3010F4FA01E7CFD4FE03C03195219510
:105100003109C20FD31FD1FE09C00115110531F0BD
:10511000E1E0EE1AF108D801ED92FC920E944C20D9
:105120002D2D2370233019F04B015C0106C04B017B
:105130005C01B7FAB094B7F8B09420E030E0A90170
:10514000C501B4010E94711F882309F43EC0D7FF36
:1051500006C0D195C195D10902EE10E002C00AEF58
:1051600010E06801B8E1CB1AD10890E2E92EF12CE9
:10517000CE15DF0574F0F8012591359145915491D4
:10518000C501B4010E9450214B015C01CE19DF0919
:10519000EFCF04501109F594E7940C151D0541F764
:1051A0008A2D880F8B2D881F8F3F49F020E030E03B
:1051B000A901C501B4010E94711F811106C082E2DC
:1051C00090E090933F0380933E03C501B40109C072
:1051D00060E070E080E89FEF04C060E070E080EC89
:1051E0009FE7CDB7DEB7ECE00C94E922283008F059
:1051F00027E03327DA01990F311D87FD9160009672
:105200006105710539F432602E5F3D9330E32A95D4
:10521000E1F708959F3F30F080387105610509F08E
:105220003C5F3C5F3D93913008F08068911DDF93B7
:10523000CF931F930F93FF92EF92192F987F96951C
:10524000E92F96959695E90FFF27E85AFE4F992783
:105250003327EE24FF24A701E70105900894079463
:1052600028F4360FE71EF81E491F511D660F771FE1
:10527000881F991F0694A1F70590079428F4E70E5C
:10528000F81E491F561FC11D770F881F991F661FE3
:105290000694A1F70590079428F4F80E491F561FAD
:1052A000C71FD11D880F991F661F771F0694A1F78E
:1052B0000590079420F4490F561FC71FD81F990F58
:1052C000661F771F881F0694A9F7849110951770A1
:1052D00041F0D695C79557954795F794E7941A9559
:1052E000C1F7EEEFF0E06894159015913591659156
:1052F000959105907FE27395E118F10A430B560BE7
:10530000C90BD009C0F7E10CF11E431F561FC91F7E
:10531000D01D7EF4703311F48A95E6CFE8940150E5
:1053200030F0080F0AF40027021708F4202F239505
:10533000022F7A3328F079E37D932A95E9F710C09C
:105340007D932A9589F606949795679537951795D5
:105350001794E118F10A430B560BC90BD00998F0CA
:1053600023957E9173957A3308F070E37C93201334
:10537000B8F77E9170617D9330F0839571E37D93F2
:1053800070E32A95E1F71124EF90FF900F911F91A0
:10539000CF91DF91992787FD9095089599278827C8
:1053A0000895FB01DC014150504088F08D9181341B
:1053B0001CF08B350CF4805E659161341CF06B350C
:1053C0000CF4605E861B611171F3990B0895881BC4
:1053D000FCCFDC01FC01672F71917723E1F7329755
:1053E00004C07C916D9370836291AE17BF07C8F3C0
:1053F000089511E0CCEFD1E004C0FE010E946C23BF
:0C5400002296CE3FD107C9F7F894FFCFE9
:10540C000000400380000100000032000000010198
:10541C000101000080BF0000C84201000700FF3AF4
:10542C0000312300322300000000003C111018A8AA
:10543C00111B118E11C011000000002D140014D589
:10544C0013DD13F013FF136E616E00696E66006F4F
:06545C007666002E000040
:04000005008001A4D2
:00000001FF
